{
  "contractName": "ToDoList",
  "abi": [
    {
      "inputs": [],
      "stateMutability": "nonpayable",
      "type": "constructor"
    },
    {
      "anonymous": false,
      "inputs": [
        {
          "indexed": false,
          "internalType": "uint256",
          "name": "id",
          "type": "uint256"
        },
        {
          "indexed": false,
          "internalType": "bool",
          "name": "completed",
          "type": "bool"
        }
      ],
      "name": "TaskCompleted",
      "type": "event"
    },
    {
      "anonymous": false,
      "inputs": [
        {
          "indexed": false,
          "internalType": "uint256",
          "name": "id",
          "type": "uint256"
        },
        {
          "indexed": false,
          "internalType": "string",
          "name": "content",
          "type": "string"
        },
        {
          "indexed": false,
          "internalType": "bool",
          "name": "completed",
          "type": "bool"
        }
      ],
      "name": "TaskCreated",
      "type": "event"
    },
    {
      "inputs": [],
      "name": "owner",
      "outputs": [
        {
          "internalType": "address",
          "name": "",
          "type": "address"
        }
      ],
      "stateMutability": "view",
      "type": "function",
      "constant": true
    },
    {
      "inputs": [],
      "name": "taskCount",
      "outputs": [
        {
          "internalType": "uint256",
          "name": "",
          "type": "uint256"
        }
      ],
      "stateMutability": "view",
      "type": "function",
      "constant": true
    },
    {
      "inputs": [
        {
          "internalType": "uint256",
          "name": "",
          "type": "uint256"
        }
      ],
      "name": "tasks",
      "outputs": [
        {
          "internalType": "uint256",
          "name": "id",
          "type": "uint256"
        },
        {
          "internalType": "string",
          "name": "content",
          "type": "string"
        },
        {
          "internalType": "bool",
          "name": "completed",
          "type": "bool"
        }
      ],
      "stateMutability": "view",
      "type": "function",
      "constant": true
    },
    {
      "inputs": [],
      "name": "value",
      "outputs": [
        {
          "internalType": "uint256",
          "name": "",
          "type": "uint256"
        }
      ],
      "stateMutability": "view",
      "type": "function",
      "constant": true
    },
    {
      "inputs": [
        {
          "internalType": "string",
          "name": "_content",
          "type": "string"
        }
      ],
      "name": "createTask",
      "outputs": [],
      "stateMutability": "payable",
      "type": "function",
      "payable": true
    },
    {
      "inputs": [
        {
          "internalType": "uint256",
          "name": "_id",
          "type": "uint256"
        }
      ],
      "name": "toggleCompleted",
      "outputs": [],
      "stateMutability": "nonpayable",
      "type": "function"
    },
    {
      "inputs": [
        {
          "internalType": "uint256",
          "name": "index",
          "type": "uint256"
        }
      ],
      "name": "showTask",
      "outputs": [
        {
          "components": [
            {
              "internalType": "uint256",
              "name": "id",
              "type": "uint256"
            },
            {
              "internalType": "string",
              "name": "content",
              "type": "string"
            },
            {
              "internalType": "bool",
              "name": "completed",
              "type": "bool"
            }
          ],
          "internalType": "struct ToDoList.Task",
          "name": "",
          "type": "tuple"
        }
      ],
      "stateMutability": "view",
      "type": "function",
      "constant": true
    }
  ],
  "bytecode": "0x6080604052600080557349108c374a03e82d3e2b47f86bceaa74fc5568de600160006101000a81548173ffffffffffffffffffffffffffffffffffffffff021916908373ffffffffffffffffffffffffffffffffffffffff16021790555060016002553480156200006f57600080fd5b50620000b66040518060400160405280601b81526020017f53617920686920746f205961676d757220616e642053656c63616e0000000000815250620000bc60201b60201c565b62000750565b600080815480929190620000d09062000244565b9190505550604051806060016040528060005481526020018281526020016000151581525060036000805481526020019081526020016000206000820151816000015560208201518160010190816200012a919062000501565b5060408201518160020160006101000a81548160ff021916908315150217905550905050600160009054906101000a900473ffffffffffffffffffffffffffffffffffffffff1673ffffffffffffffffffffffffffffffffffffffff166108fc60646002546200019b919062000617565b9081150290604051600060405180830381858888f19350505050158015620001c7573d6000803e3d6000fd5b507f05d0fb833127fc08168556d0e7ca9554fc3f6bc843b3b7d2bf1c35aea6bab66060005482600060405162000200939291906200070c565b60405180910390a150565b7f4e487b7100000000000000000000000000000000000000000000000000000000600052601160045260246000fd5b6000819050919050565b600062000251826200023a565b91507fffffffffffffffffffffffffffffffffffffffffffffffffffffffffffffffff82036200028657620002856200020b565b5b600182019050919050565b600081519050919050565b7f4e487b7100000000000000000000000000000000000000000000000000000000600052604160045260246000fd5b7f4e487b7100000000000000000000000000000000000000000000000000000000600052602260045260246000fd5b600060028204905060018216806200031357607f821691505b602082108103620003295762000328620002cb565b5b50919050565b60008190508160005260206000209050919050565b60006020601f8301049050919050565b600082821b905092915050565b600060088302620003937fffffffffffffffffffffffffffffffffffffffffffffffffffffffffffffffff8262000354565b6200039f868362000354565b95508019841693508086168417925050509392505050565b6000819050919050565b6000620003e2620003dc620003d6846200023a565b620003b7565b6200023a565b9050919050565b6000819050919050565b620003fe83620003c1565b620004166200040d82620003e9565b84845462000361565b825550505050565b600090565b6200042d6200041e565b6200043a818484620003f3565b505050565b5b8181101562000462576200045660008262000423565b60018101905062000440565b5050565b601f821115620004b1576200047b816200032f565b620004868462000344565b8101602085101562000496578190505b620004ae620004a58562000344565b8301826200043f565b50505b505050565b600082821c905092915050565b6000620004d660001984600802620004b6565b1980831691505092915050565b6000620004f18383620004c3565b9150826002028217905092915050565b6200050c8262000291565b67ffffffffffffffff8111156200052857620005276200029c565b5b620005348254620002fa565b6200054182828562000466565b600060209050601f83116001811462000579576000841562000564578287015190505b620005708582620004e3565b865550620005e0565b601f19841662000589866200032f565b60005b82811015620005b3578489015182556001820191506020850194506020810190506200058c565b86831015620005d35784890151620005cf601f891682620004c3565b8355505b6001600288020188555050505b505050505050565b7f4e487b7100000000000000000000000000000000000000000000000000000000600052601260045260246000fd5b600062000624826200023a565b915062000631836200023a565b925082620006445762000643620005e8565b5b828204905092915050565b6200065a816200023a565b82525050565b600082825260208201905092915050565b60005b838110156200069157808201518184015260208101905062000674565b60008484015250505050565b6000601f19601f8301169050919050565b6000620006bb8262000291565b620006c7818562000660565b9350620006d981856020860162000671565b620006e4816200069d565b840191505092915050565b60008115159050919050565b6200070681620006ef565b82525050565b60006060820190506200072360008301866200064f565b8181036020830152620007378185620006ae565b9050620007486040830184620006fb565b949350505050565b610ecd80620007606000396000f3fe6080604052600436106100705760003560e01c806357c6d0e31161004e57806357c6d0e3146100e55780638d977672146101225780638da5cb5b14610161578063b6cb58a51461018c57610070565b8063111002aa146100755780633fa4f24514610091578063455f5024146100bc575b600080fd5b61008f600480360381019061008a91906107d5565b6101b7565b005b34801561009d57600080fd5b506100a66102fd565b6040516100b39190610837565b60405180910390f35b3480156100c857600080fd5b506100e360048036038101906100de919061087e565b610303565b005b3480156100f157600080fd5b5061010c6004803603810190610107919061087e565b610489565b60405161011991906109a4565b60405180910390f35b34801561012e57600080fd5b506101496004803603810190610144919061087e565b61056d565b60405161015893929190610a1f565b60405180910390f35b34801561016d57600080fd5b5061017661062c565b6040516101839190610a9e565b60405180910390f35b34801561019857600080fd5b506101a1610652565b6040516101ae9190610837565b60405180910390f35b6000808154809291906101c990610ae8565b9190505550604051806060016040528060005481526020018281526020016000151581525060036000805481526020019081526020016000206000820151816000015560208201518160010190816102219190610d3c565b5060408201518160020160006101000a81548160ff021916908315150217905550905050600160009054906101000a900473ffffffffffffffffffffffffffffffffffffffff1673ffffffffffffffffffffffffffffffffffffffff166108fc60646002546102909190610e3d565b9081150290604051600060405180830381858888f193505050501580156102bb573d6000803e3d6000fd5b507f05d0fb833127fc08168556d0e7ca9554fc3f6bc843b3b7d2bf1c35aea6bab6606000548260006040516102f293929190610a1f565b60405180910390a150565b60025481565b6000600360008381526020019081526020016000206040518060600160405290816000820154815260200160018201805461033d90610b5f565b80601f016020809104026020016040519081016040528092919081815260200182805461036990610b5f565b80156103b65780601f1061038b576101008083540402835291602001916103b6565b820191906000526020600020905b81548152906001019060200180831161039957829003601f168201915b505050505081526020016002820160009054906101000a900460ff161515151581525050905080604001511581604001901515908115158152505080600360008481526020019081526020016000206000820151816000015560208201518160010190816104249190610d3c565b5060408201518160020160006101000a81548160ff0219169083151502179055509050507fe21fa966ca5cd02748c0752352d18c48165e61cb55b4c29cccf924b5a95fcff182826040015160405161047d929190610e6e565b60405180910390a15050565b610491610658565b60036000838152602001908152602001600020604051806060016040529081600082015481526020016001820180546104c990610b5f565b80601f01602080910402602001604051908101604052809291908181526020018280546104f590610b5f565b80156105425780601f1061051757610100808354040283529160200191610542565b820191906000526020600020905b81548152906001019060200180831161052557829003601f168201915b505050505081526020016002820160009054906101000a900460ff1615151515815250509050919050565b600360205280600052604060002060009150905080600001549080600101805461059690610b5f565b80601f01602080910402602001604051908101604052809291908181526020018280546105c290610b5f565b801561060f5780601f106105e45761010080835404028352916020019161060f565b820191906000526020600020905b8154815290600101906020018083116105f257829003601f168201915b5050505050908060020160009054906101000a900460ff16905083565b600160009054906101000a900473ffffffffffffffffffffffffffffffffffffffff1681565b60005481565b604051806060016040528060008152602001606081526020016000151581525090565b6000604051905090565b600080fd5b600080fd5b600080fd5b600080fd5b6000601f19601f8301169050919050565b7f4e487b7100000000000000000000000000000000000000000000000000000000600052604160045260246000fd5b6106e282610699565b810181811067ffffffffffffffff82111715610701576107006106aa565b5b80604052505050565b600061071461067b565b905061072082826106d9565b919050565b600067ffffffffffffffff8211156107405761073f6106aa565b5b61074982610699565b9050602081019050919050565b82818337600083830152505050565b600061077861077384610725565b61070a565b90508281526020810184848401111561079457610793610694565b5b61079f848285610756565b509392505050565b600082601f8301126107bc576107bb61068f565b5b81356107cc848260208601610765565b91505092915050565b6000602082840312156107eb576107ea610685565b5b600082013567ffffffffffffffff8111156108095761080861068a565b5b610815848285016107a7565b91505092915050565b6000819050919050565b6108318161081e565b82525050565b600060208201905061084c6000830184610828565b92915050565b61085b8161081e565b811461086657600080fd5b50565b60008135905061087881610852565b92915050565b60006020828403121561089457610893610685565b5b60006108a284828501610869565b91505092915050565b6108b48161081e565b82525050565b600081519050919050565b600082825260208201905092915050565b60005b838110156108f45780820151818401526020810190506108d9565b60008484015250505050565b600061090b826108ba565b61091581856108c5565b93506109258185602086016108d6565b61092e81610699565b840191505092915050565b60008115159050919050565b61094e81610939565b82525050565b600060608301600083015161096c60008601826108ab565b50602083015184820360208601526109848282610900565b91505060408301516109996040860182610945565b508091505092915050565b600060208201905081810360008301526109be8184610954565b905092915050565b600082825260208201905092915050565b60006109e2826108ba565b6109ec81856109c6565b93506109fc8185602086016108d6565b610a0581610699565b840191505092915050565b610a1981610939565b82525050565b6000606082019050610a346000830186610828565b8181036020830152610a4681856109d7565b9050610a556040830184610a10565b949350505050565b600073ffffffffffffffffffffffffffffffffffffffff82169050919050565b6000610a8882610a5d565b9050919050565b610a9881610a7d565b82525050565b6000602082019050610ab36000830184610a8f565b92915050565b7f4e487b7100000000000000000000000000000000000000000000000000000000600052601160045260246000fd5b6000610af38261081e565b91507fffffffffffffffffffffffffffffffffffffffffffffffffffffffffffffffff8203610b2557610b24610ab9565b5b600182019050919050565b7f4e487b7100000000000000000000000000000000000000000000000000000000600052602260045260246000fd5b60006002820490506001821680610b7757607f821691505b602082108103610b8a57610b89610b30565b5b50919050565b60008190508160005260206000209050919050565b60006020601f8301049050919050565b600082821b905092915050565b600060088302610bf27fffffffffffffffffffffffffffffffffffffffffffffffffffffffffffffffff82610bb5565b610bfc8683610bb5565b95508019841693508086168417925050509392505050565b6000819050919050565b6000610c39610c34610c2f8461081e565b610c14565b61081e565b9050919050565b6000819050919050565b610c5383610c1e565b610c67610c5f82610c40565b848454610bc2565b825550505050565b600090565b610c7c610c6f565b610c87818484610c4a565b505050565b5b81811015610cab57610ca0600082610c74565b600181019050610c8d565b5050565b601f821115610cf057610cc181610b90565b610cca84610ba5565b81016020851015610cd9578190505b610ced610ce585610ba5565b830182610c8c565b50505b505050565b600082821c905092915050565b6000610d1360001984600802610cf5565b1980831691505092915050565b6000610d2c8383610d02565b9150826002028217905092915050565b610d45826108ba565b67ffffffffffffffff811115610d5e57610d5d6106aa565b5b610d688254610b5f565b610d73828285610caf565b600060209050601f831160018114610da65760008415610d94578287015190505b610d9e8582610d20565b865550610e06565b601f198416610db486610b90565b60005b82811015610ddc57848901518255600182019150602085019450602081019050610db7565b86831015610df95784890151610df5601f891682610d02565b8355505b6001600288020188555050505b505050505050565b7f4e487b7100000000000000000000000000000000000000000000000000000000600052601260045260246000fd5b6000610e488261081e565b9150610e538361081e565b925082610e6357610e62610e0e565b5b828204905092915050565b6000604082019050610e836000830185610828565b610e906020830184610a10565b939250505056fea26469706673582212204febfc020710d04545c6284a661b6a2c65d9d31ebc27533750d008c8903f703464736f6c63430008110033",
  "immutableReferences": {},
  "source": "// SPDX-License-Identifier: MIT\r\npragma solidity >=0.4.22 <0.9.0;\r\n\r\ncontract ToDoList{\r\n\r\n  uint public taskCount = 0;\r\n  address public owner = 0x49108c374A03e82D3E2B47f86BcEAa74FC5568De;\r\n  uint public value = 1;\r\n \r\n  struct Task {\r\n    uint id;\r\n    string content;\r\n    bool completed;\r\n  }\r\n\r\n  mapping(uint => Task) public tasks;\r\n\r\n  event TaskCreated(\r\n    uint id,\r\n    string content,\r\n    bool completed\r\n  );\r\n\r\n  event TaskCompleted(\r\n    uint id,\r\n    bool completed\r\n  );\r\n\r\n  constructor() {\r\n    createTask(\"Say hi to Yagmur and Selcan\");\r\n    msg.sender;\r\n  }\r\n\r\n  function createTask(string memory _content) public payable{\r\n    taskCount ++;\r\n    tasks[taskCount] = Task(taskCount, _content, false);\r\n    payable (owner).transfer(value/100);\r\n    emit TaskCreated(taskCount, _content, false);\r\n  }\r\n\r\n  function toggleCompleted(uint _id) public {\r\n    Task memory _task = tasks[_id];\r\n    _task.completed = !_task.completed;\r\n    tasks[_id] = _task;\r\n    emit TaskCompleted(_id, _task.completed);\r\n  }\r\n\r\n  function showTask(uint index) public view returns (Task memory) {\r\n    return tasks[index];\r\n  }\r\n\r\n}",
  "sourcePath": "C:\\Users\\Yagmur Candas Meryem\\ToDoList\\contracts\\ToDoList.sol",
  "compiler": {
    "name": "solc",
    "version": "0.8.17+commit.8df45f5f.Emscripten.clang"
  },
  "schemaVersion": "3.4.11",
  "updatedAt": "2022-12-15T21:44:36.710Z",
  "networkType": "ethereum",
  "devdoc": {
    "kind": "dev",
    "methods": {},
    "version": 1
  },
  "userdoc": {
    "kind": "user",
    "methods": {},
    "version": 1
  }
}